:10000000D3C054C6ECC0EBC0EAC0E9C0A0C6E7C08C
:10001000E6C0E5C0E4C0E3C0E2C0E1C0E0C0DFC0CC
:10002000DEC0DDC0DCC02C01013200000000900108
:100030000132000000005802022850000000EE02C9
:10004000022850000000E8030221430000002C01B8
:10005000013200000000F401022143000000EE0222
:10006000022143000000E8030319324B0000DC05C5
:100070000319324B0000D0070414283C5000A00F95
:100080000514283C50632C01013200000000F401EB
:10009000022143000000EE02022143000000E803B9
:1000A0000319324B0000DC050319324B0000D00766
:1000B0000414283C5000A00F0514283C5063640031
:1000C00078000000C800F00000009001A4010000CA
:1000D00058023A0200002003D002000064005A00D7
:1000E0000000C800B400000090012C01000058027C
:1000F000A401000020031C0200006400780000003E
:10010000C800D20000009001680100005802FE0102
:100110000000200394020000E8030C0300006400C8
:1001200028000400C800460004002C0164000400FC
:10013000900182000400F4019600040064005A005B
:100140000301F401A4010301E80384030301D007C0
:1001500080070301B80BB80B0301A00F681003015F
:10016000640078000301F4013A020301E803B004DB
:100170000301D007500A0301B80BE0100301A00FE0
:100180006F170301640078000301F40158020301B2
:10019000E803EC040301D007C80A0301B80B94116B
:1001A0000301A00F6F17030111241FBECFE5D4E098
:1001B000DEBFCDBF10E0A0E6B0E0E8EDFBE102C09D
:1001C00005900D92A03DB107D9F721E0A0EDB0E078
:1001D00001C01D92AE32B207E1F7BFD9FBCC10CF00
:1001E00010922D01949808951092D400813359F4FF
:1001F00080910C018F5F883118F480930C01089571
:1002000010920C010895843379F480910D016AE015
:1002100093DC8F5F863008F080E02AE0829F900DAB
:10022000112490930D0108958733E9F780910D0112
:100230006AE082DC9F5F9A3081F790E0EECF909188
:10024000090120910A0130910B01EAE0622F70E070
:100250009E9F600D711D1124FCE3F69FA001F79F86
:10026000500D11243E9F400D511D1124463657411B
:100270003CF01092090110920A0110920B010895AE
:100280008733F9F43F5F363018F430930B0108954B
:1002900010920B012F5F2A3018F420930A01089561
:1002A00010920A019F5F9A3018F490930901089503
:1002B00089E08093090180930A0185E080930B0116
:1002C0000895843369F42F5F2A3038F310920A01BD
:1002D0009F5F909309019A3028F0109209010895C8
:1002E0008133B1F30895362F90916300911105C0C9
:1002F000882389F08D3008F08C502AE0622F1CDCB6
:1003000080931A0190931901832F16DC80931801B2
:100310009093170108958CE0F0CF6CE370E018DC47
:10032000282F862F6AE008DC811104C0911101C0DA
:100330009AE08AE080931A0190931901822F6AE073
:10034000FBDB809318019093170108958091D500ED
:100350008F5F8C3318F48093D50008951092D500E8
:10036000809116018F5F8C3318F4809316010895E5
:1003700010921601809115018F5F883118F48093D7
:10038000150108951092150108958091D60090915D
:10039000D7008A30910568F48093600010920801BC
:1003A000E0910801E1110DC0809160008093ED00A3
:1003B00008958E31910518F480936000F1CF8EE19D
:1003C000FBCF20916000F0E0EE0FFF1FEA53FF4FDC
:1003D000A081B18130E0F2DB2CEB32E040E050E074
:1003E000CBDB2530310510F425E030E08091600052
:1003F0008250990B8217930720F4209160002250BD
:10040000330B2093ED00089580910101909102013A
:10041000892B31F480E293E09093020180930101F3
:1004200008958091010190910201892B31F48CE2B1
:1004300091E0909302018093010108952091D800EA
:100440003091D9002817390741F09093D900809353
:10045000D8001092DB001092DA00089582B38F73F7
:1004600082BB88B3877E88BB0895CF93DF93D62F56
:10047000E82FF0E0E256FF4FC081F0DFED2FF0E013
:10048000EE0FFF1FDA30D0F4E657FF4F8081218155
:1004900098B3987F982B98BB85B3897C822B85BBBA
:1004A0008C2F90E0FC01E859FF4F2081222349F076
:1004B00082B3282B22BBDF91CF910895E85AFF4FDA
:1004C000E5CF28B38C599F4FFC018081822B88BBDC
:1004D000F2CF10922C0110922B0182E090E0AEDF5F
:1004E0001092090110920A0110920B0110920C0156
:1004F00010920D011092D400109208011092120176
:10050000109211011092D7001092D6001092D300D1
:100510001092D2001092EC001092EB001092F600B4
:100520001092F5001092F1001092F2001092F30078
:100530001092F4001092F0001092EF001092260139
:100540004FDE93989198C59810920F0110920E016A
:100550001092230110922201EEEDF0E08CE0DF0119
:100560001D928A95E9F71092FE001092FD001092FC
:1005700000011092FF0010922501109224010895AD
:10058000809B04C04EDFA5DF80E00895919A8091A2
:100590001101909112019093D7008093D600F5DE5F
:1005A0001092EE00939AC59A8091110190911201D8
:1005B0000A9760F415DE8DE090E090932C01809313
:1005C0002B0181E090E03ADF81E0089581E08093A3
:1005D0002D01F1CFAF92BF92DF92EF92FF920F9376
:1005E0001F93CF93DF9300D000D000D0CDB7DEB7FC
:1005F000D62E5A017C0110E000E046E050E0B70141
:10060000CE01019690DA85E0D8122BC084E090E00C
:100610000817190769F086E0E80EF11CF7018591CB
:100620009491A816B90620F00F5F1F4F0D1528F3FF
:100630008B819C8190931201809311018D81809315
:10064000080126960FB6F894DEBF0FBECDBFDF912E
:10065000CF911F910F91FF90EF90DF90BF90AF90DF
:10066000089585E090E0D4CFCF9320912B01309175
:100670002C012130310509F41BC1C62F833449F503
:1006800020912B0130912C01232BD9F48EE190E0A5
:10069000909312018093110188EE93E09093F600FD
:1006A0008093F5008CE090E090932C0180932B01D7
:1006B00010920F0110920E01CC2309F4F9C0CF91D2
:1006C000B0CE20912B0130912C012D30310509F451
:1006D000D3C220912B0130912C012D30310581F5B1
:1006E0008933C9F48091110190911201863627E176
:1006F000920708F0DDC00A969093120180931101D1
:100700008091D6009091D7000A969093D70080935D
:10071000D6003BDED1CF813499F4809111019091C4
:1007200012018A30910508F4C3C00A979093120110
:10073000809311018091D6009091D7000A97E5CF60
:10074000E0912B01F0912C01E331F10508F0DDC0BF
:10075000E555FC4F099412C0ABC05FC083C0A8C070
:10076000A9C001C1D2C0D1C049C156C170C126C201
:100770003FC24AC26BC272C071C09AC0863351F484
:1007800082E090E090932C0180932B0181E0809394
:10079000630092CF813321F0843311F0873351F419
:1007A0001092090110920A0110920B0148DD85E0B8
:1007B00090E006C0833349F41092080186E090E08F
:1007C00090932C0180932B0177CF823331F481E019
:1007D0008093100189E090E0F3CF853331F481E01C
:1007E000809310018AE090E0EBCF883309F060C07D
:1007F00082E090E090930F0180930E0181E080935E
:10080000100144EF51E066E084E891E0E3DE64EF3C
:1008100071E081E020D6B4DE4FCF863329F4809199
:10082000630091E08927B3CF813321F0843311F045
:100830008733A1F49091150190930C0190911601CA
:1008400090930D019091D5009093D40023E030E077
:1008500030932C0120932B01C7DC2ECF823441F53D
:1008600038DE2ACF8133C1F38433B1F38733A1F368
:100870008633A1F780910C018093150180910D01C1
:10088000809316018091D4008093D50080ED97E08D
:100890009093F0008093EF0084E090E090932C011F
:1008A00080932B0180E293E0909300018093FF00FE
:1008B000CF910895813321F0843311F0873311F4FF
:1008C000BEDCFACE833419F5209109014AE080910B
:1008D0000A0190E0249F800D911D11245CE3589F34
:1008E0009001599F300D112480910B01849F200DA0
:1008F000311D1124309312012093110110920F0128
:1009000010920E01232B09F086CFCF91E2CD8333D5
:1009100009F0A4CF209109014AE080910A0190E0FA
:10092000249F800D911D11245CE3589F9001599FD5
:10093000300D112480910B01849F200D311D112455
:1009400030931201209311013093D3002093D200F1
:10095000809108018093D1001092090110920A0140
:1009600010920B0129CF833359F4809108018F5FD6
:10097000853018F4809308019FCE109208019CCE18
:10098000813309F413CF843309F410CF873309F48A
:100990000DCF833409F062CF209109014AE08091A4
:1009A0000A0190E0249F800D911D11245CE3589F63
:1009B0009001599F300D112480910B01849F200DCF
:1009C000311D11243093EC002093EB00809108013D
:1009D0008093EA008091D2009091D300909312010D
:1009E000809311012091D1002093080110920F01F2
:1009F00010920E01892B09F00ECF87CF1092D000F4
:100A00008233B9F4809110018F5F843018F48093A1
:100A1000100152CE81E0FBCF91E09093D00085335E
:100A200041F4809110018F5F853088F3909310011D
:100A300043CE893319F0813409F010CF84E690E079
:100A400090930701809306018BE090E0B9CE40912E
:100A5000D00090911001442319F120EA3FE0943036
:100A600011F424EF31E060910601709107016436C2
:100A7000710530F464E670E070930701609306013D
:100A80008933C1F480910601909107018C599F4FE1
:100A90002817390760F090930701809306010CCE68
:100AA00020E233E09230F8F628EE33E0DCCF84E643
:100AB00090E0F1CF813479F48091060190910701A3
:100AC0008536910518F084569109E5CF30930701DA
:100AD00020930601F1CD833409F0C0CE442309F4FC
:100AE00048C022E030E030930F0120930E01923095
:100AF00021F138F4913091F080911101909112011F
:100B000079CF933041F19430B9F74091060150917B
:100B1000070165E08EE191E05DDDEECF40910601D9
:100B20005091070166E084E891E054DD6091060190
:100B30007091070181E08FD4DFCF40910601509181
:100B4000070166E080E691E045DD60910601709165
:100B5000070182E0F0CF409106015091070166E065
:100B60008CE391E037DD609106017091070183E02D
:100B7000E2CF21E030E030930F0120930E0192305C
:100B800069F0933099F0913009F0B6CF40910601A9
:100B90005091070166E08AEF90E0BECF40910601D8
:100BA0005091070165E08CED90E0B6CF40910601D1
:100BB0005091070165E08EEB90E0AECF833409F0F1
:100BC0004DCE80911101909112014E96803727E110
:100BD000920758F4909312018093110188EE93E0EC
:100BE0009093F6008093F50067CD8EE190E0F2CF10
:100BF000823409F05DCE8EE090E090932C018093DA
:100C00002B01EEDA939858CD833409F027CE8099E2
:100C100053CD8DE090E090932C0180932B0181E0E7
:100C200090E00CDC939A919A8091110190911201BD
:100C30000A9710F4D5DA40CD9091EE008091ED0046
:100C40009817C0F781E080932D0136CD833409F0E9
:100C500005CE8091E9008F5F8093E9008DE090E000
:100C600090932C0180932B01939A80911101909184
:100C700012010A9738F7DECF80911101909112018D
:100C8000823527E1920758F44E9690931201809393
:100C900011018091D6009091D7004E9636CD8FE607
:100CA00097E190931201809311012FCD1F920F9223
:100CB0000FB60F9211242F933F934F935F936F932F
:100CC0007F938F939F93AF93BF93EF93FF93809105
:100CD0002D018111949A10920501809104018111D6
:100CE00003C081E080930401809103018F5F8093B2
:100CF00003018091220190912301892BB9F4809105
:100D00002B0190912C010E9789F080912B019091ED
:100D10002C010F9759F080910301823338F0109223
:100D20000301109214011092130110DBFF91EF9157
:100D3000BF91AF919F918F917F916F915F914F91F3
:100D40003F912F910F900FBE0F901F9018951F92FB
:100D50000F920FB60F9211242F933F934F935F93EF
:100D60006F937F938F939F93AF93BF93CF93DF93B3
:100D7000EF93FF938091DA009091DB0001969093BE
:100D8000DB008093DA008091D8009091D900823006
:100D9000910509F4F3C008F0DCC0009709F400C124
:100DA000019709F4F2C08091010190910201892B11
:100DB000F9F080910101909102018032934039F065
:100DC00080910101909102018C32914009F4959A31
:100DD000809101019091020101979093020180930B
:100DE00001018091010190910201892B09F49598EC
:100DF0008091FF0090910001892BE1F08091FF002C
:100E0000909100010197909300018093FF008091E1
:100E1000FF009091000124E630E0B90199D6C29715
:100E200009F0D4C0959A8091FF0090910001892B20
:100E300009F495988091FD009091FE00892B79F13D
:100E40008091FD009091FE00019771F08091FD006E
:100E50009091FE008935924039F08091FD0090918B
:100E6000FE00813B944009F4DCDA8091FD00909112
:100E7000FE0001969093FE008093FD008091240176
:100E800090912501892B39F08091FD009091FE0011
:100E90008E3D954020F01092FE001092FD00809152
:100EA0001B0190912901981302C091119AC01092D0
:100EB000FC001092FB002091200130912101309321
:100EC0001D0120931C01109221011092200180939A
:100ED000290110922A018091FA008F5F843108F075
:100EE000B0C08093FA008091F900882309F4C6C04D
:100EF0003699C4C084B195B190936200809361002B
:100F00001092F9008091610090916200873F9340B8
:100F1000F0F4EEEAF0E090E080E021913191409130
:100F2000610050916200B9016A5071094617570774
:100F300050F04091610050916200265F3F4F2417AE
:100F4000350708F089C001968C30910531F780E0B3
:100F500087C08330910539F1049709F024CF80913F
:100F6000DA009091DB00863A910578F08091DA0002
:100F70009091DB008D34914020F512C08091DA0011
:100F80009091DB00843F914020F481E08093DD006C
:100F90000ACF8091DA009091DB00883E934088F47C
:100FA0001092DD0000CF8091DA009091DB00883C48
:100FB000910558F38091DA009091DB0080399140DF
:100FC00078F31092DB001092DA00EDCE8091FF00F2
:100FD00090910001B901BCD5892B09F024CF9598D7
:100FE00022CF80912A0181111AC08091FB0090913B
:100FF000FC00883B9B4098F48091FB009091FC00A2
:1010000001969093FC008093FB008091FB009091EF
:10101000FC00883B9B4019F481E080932A01809179
:10102000200190912101883E9D4F08F054CF80917E
:10103000200190912101019690932101809320013C
:101040004ACF1092FA008091F90081114CCF369A64
:1010500081E08093F90047CF8E559F4FFC0180813E
:101060009091F80098139AC19091F700933008F08E
:1010700092C18091F7008F5F8093F70080912B01E0
:1010800090912C010197C9F08091DD00882309F42B
:101090008AC1AB9AC091DC00C13009F48BC108F45D
:1010A00084C1C23009F48AC1C33009F48BC1CF5F57
:1010B000C43008F08BC1C093DC0080911301909183
:1010C0001401019690931401809313018091F5000F
:1010D0009091F600892BB1F08091F5009091F60087
:1010E00001979093F6008093F5008091F500909120
:1010F000F600892B39F480912B0190912C010C97EB
:1011000009F43EDA80912B0190912C01409709F06F
:1011100060C18091F1009091F200A091F300B09134
:10112000F4000196A11DB11D8093F1009093F2008F
:10113000A093F300B093F4008091F1009091F2003D
:10114000A091F300B091F40080339547A105B1055B
:1011500078F081E190E090932C0180932B01109224
:10116000F1001092F2001092F3001092F4004CD9AA
:101170008091EF009091F000892B81F08091EF0039
:101180009091F00001979093F0008093EF00809190
:10119000EF009091F000892B09F49BD980912201F6
:1011A00090912301892B49F0809122019091230194
:1011B00001979093230180932201809124019091C3
:1011C0002501892B49F080912401909125010197F7
:1011D0009093250180932401809113019091140133
:1011E000883E934008F4C4C0109214011092130179
:1011F0008091220190912301892B09F0B9C080913F
:101200002B0190912C010E9709F47FC080912B0146
:1012100090912C010F9709F478C080912B01909147
:101220002C010D9709F071C0C0911101D0911201EC
:10123000209709F46AC0C430D10508F4E5D8219795
:10124000D0931201C093110180910E0190910F0172
:10125000029771F59091E9008091DE00981740F5B2
:10126000E091E900F0E0EE0FFF1FE252FF4F8181B5
:1012700092810097E9F0C817D907D1F4B1D79398B4
:101280008FE090E090932C0180932B0188E893E10C
:1012900090932501809324018091FD009091FE00A0
:1012A000892B31F481E090E09093FE008093FD0063
:1012B000C0911101D0911201CA30D10508F0A4C02B
:1012C0008FD78091EE008F5F8093EE009091EE00BB
:1012D00080916000981710F01092EE00CD2BA9F4C9
:1012E0008091EB009091EC00009709F498C09093E6
:1012F0001201809311018091EA008093080140D986
:101300001092EC001092EB008CD880912B01909100
:101310002C01419791F46091F1007091F20080915D
:10132000F3009091F40028EE33E040E050E024D444
:101330002C33310509F088C067D8809105018F5F93
:101340008093050180910501823090F08091040125
:1013500081111092040180912B0190912C010E9724
:1013600039F080912B0190912C010F9709F0EED765
:10137000FF91EF91DF91CF91BF91AF919F918F91AD
:101380007F916F915F914F913F912F910F900FBE81
:101390000F901F90189580931B0170CE1092F7004C
:1013A0008093F8006BCEAB9875CE6091170180E00A
:1013B0005CD87DCE6091180181E0FACF609119016F
:1013C00082E0F6CF60911A0183E0F2CF1092DC0048
:1013D00074CE80912B0190912C01419709F0C8CED9
:1013E0008091F1009091F200A091F300B091F4008F
:1013F0000196A11DB11D8093F1009093F200A0937E
:10140000F300B093F400B4CE9091EE008091ED0023
:10141000981708F055CF81E080932D0152CF80E1DD
:1014200090E090932C0180932B0190E080E006D80F
:101430001092F1001092F2001092F3001092F4005A
:10144000CFD69398919861CF2837310508F475CF9E
:10145000DBD73FD872CF4F925F926F927F92AF925D
:10146000BF92CF92DF92EF92FF920F931F93CF9391
:10147000DF93CDB7DEB728970FB6F894DEBF0FBE67
:10148000CDBF6B01EEEDF0E09CE0DF011D929A957F
:10149000E9F757E0E52E06E810E0813051F065E00D
:1014A000E62E06E210E0823021F447E0E42E0EE45E
:1014B00010E0F12C48E050E0B801CE01019633D3A2
:1014C00089819A818C159D0528F4F394085F1F4F3C
:1014D000EF10F0CFFB80F092DE00C0901101D090B1
:1014E00012015E01B4E0AB0EB11C10E000E034E686
:1014F000432E512C612C712C0F15D0F4F501219144
:101500005F018FEF820F833680F430E0D60156D32F
:10151000A301920131D3C601821B930BF801EE0F98
:10152000FF1FE252FF4F928381830F5F1F4FE4CF73
:1015300028960FB6F894DEBF0FBECDBFDF91CF91D6
:101540001F910F91FF90EF90DF90CF90BF90AF90E1
:101550007F906F905F904F90089587B38F6187BBA6
:1015600084B38E6384BB81B3806C81BB88B3807E7F
:1015700088BB85B3897C85BB82B38F7382BBAB98F4
:101580008A988898909A8C9A9498899A91988D9A2A
:1015900095988B9A9398BD9AC59880E487B987E807
:1015A00086B91FBC1EBC1DBC1CBC8FEC97E09BBD4C
:1015B0008ABD8EB58A608EBD89B7806189BF85B7C7
:1015C000826085BF85B78E7F85BF8BB780648BBFF8
:1015D0001092050181E0809304017BD77894222446
:1015E000239490ED892E97E0992E2EE0C22ED12CD7
:1015F00004E610E037E1532E4CE0342E5EEEA52ECB
:1016000052E0B52ECAE0D0E068EEE62E63E0F62E9A
:1016100080912B0190912C010197D1F380912A01A7
:101620008823A9F010922A0180912901823469F45B
:1016300080912B0190912C01892B09F084C042E10B
:1016400050E050932C0140932B011092280180B35D
:101650008170782E809127017816A1F0772009F407
:10166000A8C080912B0190912C010D9709F074C0B6
:10167000D0922C01C0922B0120922601B1D59398D3
:101680007092270180912B0190912C01429769F073
:1016900080912B0190912C01049739F02091220127
:1016A0003091230181E0232B09F080E09091260105
:1016B000911103C0882309F4DAC0F89440901B010B
:1016C000789480912601882309F484C052E445125D
:1016D00083C08091200190912101853F914008F4C1
:1016E00087C0609020017090210180912B01909122
:1016F0002C018530910529F008F074C0039709F09A
:1017000077C082E390E049EB64164BE0740640F446
:101710005DED651655E0750608F0A6C088EC90E012
:1017200020911E0130911F01A301421B530B48174A
:10173000590708F45DC060E0842D96D770921F01B0
:1017400060921E0155C080912B0190912C0142970F
:1017500009F07BCFBED679CF80912B0190912C01DF
:101760000E9771F080912B0190912C010F9741F011
:1017700080912B0190912C01409749F4AAD680CFFB
:1017800020922601109225011092240179CF809198
:101790002B0190912C01419789F380912B0190911D
:1017A0002C01429709F46CCF909223018092220180
:1017B00067CF80912601811110922601809122012C
:1017C00090912301892B09F45BCF10922301109291
:1017D000220156CF41107DCF10921F0110921E01A1
:1017E000412C06C08B309105C9F10D9709F489CFC2
:1017F00080912801841579F041100BC0882349F0AD
:1018000020911C0130911D01253F314010F461E011
:101810002BD74092280180912B0190912C01409769
:1018200031F080912B0190912C01419719F460E0E7
:1018300080E01AD78091220190912301892BF1F049
:101840008DE080931A0184E180931901809318013F
:1018500083E18093170190E080E035C081ED681648
:1018600087E0780608F45ACF84E690E059CF1092CA
:10187000280110921F0110921E01CDCFE0912B0183
:10188000F0912C01E331F10508F043C1E75BF34F20
:10189000099412C05EC05FC07AC082C089C09AC07D
:1018A00038C137C1BAC0C7C0D4C0F6C00AC10DC064
:1018B0000CC026C125C1F9C06091160180911501A7
:1018C00012D582E090E0BAD5A3CE80911301909119
:1018D0001401B7013DD161707727809126018823DB
:1018E00059F0672B09F4ACCF80911101909112014E
:1018F00014D581E090E0E7CF80912B0190912C01ED
:101900000F9769F480911001672B71F79DE0909318
:101910001A01309219019FE0909318019ACF80919B
:101920000E0190910F01892BF9F2672BE9F62091B6
:101930000E0130910F01809110012130310531F7F6
:1019400090E190931A0191E190931901509218013E
:1019500080CF84D55DCE90E080E070D5809163002B
:10196000882361F08AE080931A018093190182E054
:101970008093180184E0809317014ACE8AE0809317
:101980001A01809319012092180182E0F4CF81E0BE
:1019900090E054D560910D0180910C01A4D438CE13
:1019A00084E090E04BD56091160180911501F6CF4F
:1019B00081E090E043D580910B0190910A01209144
:1019C000090120931A019093190180931801109234
:1019D00017011ECE90E080E031D5E0910801F0E0E3
:1019E000EE0FFF1FEA53FF4F2081318186E1809384
:1019F0001A01C901B801ACD0CB01BE01A9D08093B6
:101A00001901C901BE01A4D0282FCB01BE01A0D06D
:101A10008093180120931701FBCD90E080E00ED554
:101A20008091100190E190931A0191E19093190136
:101A300050921801A0CF90E080E000D58091100175
:101A40009DE090931A01309219019FE09093180144
:101A500092CF90E080E0F2D4E0910601F09107018E
:101A6000CF01B80175D0262F472F3AE0E83E83E03A
:101A7000F80760F0CF01B7016BD0CB01BE0168D091
:101A8000382F822F942FBE0163D0282F30931A0154
:101A900020931901CF01B6CF81E090E0CFD480919F
:101AA00011019091120139D4B3CD90E080E0C6D4F9
:101AB0008AE080931A0180931901809318018BE0CA
:101AC0005ACF81E090E0BAD42091110130911201F7
:101AD0002630310598F48091130190911401B501DD
:101AE00037D060FD0BC030921A0195E19093190137
:101AF0008DE080931801509217018ACDC901D3CF90
:101B000090E080E09BD430921A0125E120931901E6
:101B1000EFCF90E080E092D450921A0150921901D8
:101B200050921801E8CFFB01DC0102C005900D9234
:101B300041505040D8F70895991B79E004C0991F8F
:101B4000961708F0961B881F7A95C9F78095089517
:101B5000AA1BBB1B51E107C0AA1FBB1FA617B707D3
:101B600010F0A61BB70B881F991F5A95A9F78095EF
:101B70009095BC01CD010895A1E21A2EAA1BBB1BB2
:101B8000FD010DC0AA1FBB1FEE1FFF1FA217B30749
:101B9000E407F50720F0A21BB30BE40BF50B661F5F
:101BA000771F881F991F1A9469F760957095809523
:101BB00090959B01AC01BD01CF010895A29FB0019A
:101BC000B39FC001A39F01D0B29F700D811D11244E
:081BD000911D0895F894FFCF68
:101BD8000AFF0301000010084080000000000130E7
:101BE8000334072207300234063601340632022055
:101BF80007200620023602000330053604020326B9
:101C080007060612071407340406073607160301E9
:101C180000023235383134373339413642435E01B8
:101C28008B01EE011B025E02E802340350037703C6
:101C38009E03C403EB03BC023002A40118018C000C
:00000001FF
